{
  "_format": "hh-sol-artifact-1",
  "contractName": "Pipele",
  "sourceName": "contracts/Pipele.sol",
  "abi": [
    {
      "inputs": [
        {
          "internalType": "uint256",
          "name": "_deploymentFee",
          "type": "uint256"
        }
      ],
      "stateMutability": "nonpayable",
      "type": "constructor"
    },
    {
      "anonymous": false,
      "inputs": [
        {
          "indexed": true,
          "internalType": "address",
          "name": "writerAddress",
          "type": "address"
        },
        {
          "indexed": true,
          "internalType": "string",
          "name": "writerDID",
          "type": "string"
        },
        {
          "indexed": true,
          "internalType": "address",
          "name": "writerDeployedContractAddress",
          "type": "address"
        }
      ],
      "name": "LogNewDeployment",
      "type": "event"
    },
    {
      "anonymous": false,
      "inputs": [
        {
          "indexed": true,
          "internalType": "uint256",
          "name": "newDeploymentFee",
          "type": "uint256"
        }
      ],
      "name": "LogNewDeploymentFee",
      "type": "event"
    },
    {
      "inputs": [
        {
          "internalType": "string",
          "name": "_did",
          "type": "string"
        }
      ],
      "name": "deployWriterNFT",
      "outputs": [],
      "stateMutability": "payable",
      "type": "function"
    },
    {
      "inputs": [],
      "name": "getContractBalance",
      "outputs": [
        {
          "internalType": "uint256",
          "name": "",
          "type": "uint256"
        }
      ],
      "stateMutability": "view",
      "type": "function"
    },
    {
      "inputs": [
        {
          "internalType": "address",
          "name": "_address",
          "type": "address"
        }
      ],
      "name": "getHasWriterDeployed",
      "outputs": [
        {
          "internalType": "bool",
          "name": "",
          "type": "bool"
        }
      ],
      "stateMutability": "view",
      "type": "function"
    },
    {
      "inputs": [
        {
          "internalType": "address",
          "name": "_address",
          "type": "address"
        }
      ],
      "name": "getWriterDeployedContractAddress",
      "outputs": [
        {
          "internalType": "address",
          "name": "",
          "type": "address"
        }
      ],
      "stateMutability": "view",
      "type": "function"
    },
    {
      "inputs": [],
      "name": "getWriters",
      "outputs": [
        {
          "components": [
            {
              "internalType": "address",
              "name": "writerAddress",
              "type": "address"
            },
            {
              "internalType": "string",
              "name": "writerDID",
              "type": "string"
            },
            {
              "internalType": "address",
              "name": "writerDeployedContractAddress",
              "type": "address"
            }
          ],
          "internalType": "struct Pipele.Writerr[]",
          "name": "",
          "type": "tuple[]"
        }
      ],
      "stateMutability": "view",
      "type": "function"
    },
    {
      "inputs": [
        {
          "internalType": "uint256",
          "name": "_newDeploymentFee",
          "type": "uint256"
        }
      ],
      "name": "setDeploymentFee",
      "outputs": [],
      "stateMutability": "nonpayable",
      "type": "function"
    },
    {
      "stateMutability": "payable",
      "type": "receive"
    }
  ],
  "bytecode": "0x608060405234801561001057600080fd5b5060405162003a5838038062003a5883398181016040528101906100349190610056565b80600081905550506100a0565b60008151905061005081610089565b92915050565b60006020828403121561006857600080fd5b600061007684828501610041565b91505092915050565b6000819050919050565b6100928161007f565b811461009d57600080fd5b50565b6139a880620000b06000396000f3fe608060405260043610620000615760003560e01c806328608387146200006e5780636f9fb98a146200008e578063cb01316c14620000be578063d002462b14620000ee578063ec2f9a1a146200011c578063eedcc6ac14620001605762000069565b366200006957005b600080fd5b6200008c600480360381019062000086919062000a62565b620001a4565b005b3480156200009b57600080fd5b50620000a66200054f565b604051620000b5919062000d85565b60405180910390f35b348015620000cb57600080fd5b50620000d662000557565b604051620000e5919062000d00565b60405180910390f35b348015620000fb57600080fd5b506200011a600480360381019062000114919062000aa7565b620006fe565b005b3480156200012957600080fd5b5062000148600480360381019062000142919062000a36565b62000735565b60405162000157919062000d24565b60405180910390f35b3480156200016d57600080fd5b506200018c600480360381019062000186919062000a36565b620007fd565b6040516200019b919062000ce3565b60405180910390f35b600073ffffffffffffffffffffffffffffffffffffffff163373ffffffffffffffffffffffffffffffffffffffff16141562000217576040517f08c379a00000000000000000000000000000000000000000000000000000000081526004016200020e9062000d41565b60405180910390fd5b60001515600160003373ffffffffffffffffffffffffffffffffffffffff1673ffffffffffffffffffffffffffffffffffffffff16815260200190815260200160002060009054906101000a900460ff16151514620002ad576040517f08c379a0000000000000000000000000000000000000000000000000000000008152600401620002a49062000d63565b60405180910390fd5b6000604051620002bd90620008d8565b604051809103906000f080158015620002da573d6000803e3d6000fd5b5090506000819050600360405180606001604052803373ffffffffffffffffffffffffffffffffffffffff1681526020018581526020018373ffffffffffffffffffffffffffffffffffffffff16815250908060018154018082558091505060019003906000526020600020906003020160009091909190915060008201518160000160006101000a81548173ffffffffffffffffffffffffffffffffffffffff021916908373ffffffffffffffffffffffffffffffffffffffff1602179055506020820151816001019080519060200190620003b9929190620008e6565b5060408201518160020160006101000a81548173ffffffffffffffffffffffffffffffffffffffff021916908373ffffffffffffffffffffffffffffffffffffffff160217905550505080600260003373ffffffffffffffffffffffffffffffffffffffff1673ffffffffffffffffffffffffffffffffffffffff16815260200190815260200160002060006101000a81548173ffffffffffffffffffffffffffffffffffffffff021916908373ffffffffffffffffffffffffffffffffffffffff16021790555060018060003373ffffffffffffffffffffffffffffffffffffffff1673ffffffffffffffffffffffffffffffffffffffff16815260200190815260200160002060006101000a81548160ff0219169083151502179055508073ffffffffffffffffffffffffffffffffffffffff1683604051620004ff919062000cca565b60405180910390203373ffffffffffffffffffffffffffffffffffffffff167fe940ee91795f52ece886161bd5b06b62988ee3654cf4a397e01681591e70319860405160405180910390a4505050565b600047905090565b60606003805480602002602001604051908101604052809291908181526020016000905b82821015620006f557838290600052602060002090600302016040518060600160405290816000820160009054906101000a900473ffffffffffffffffffffffffffffffffffffffff1673ffffffffffffffffffffffffffffffffffffffff1673ffffffffffffffffffffffffffffffffffffffff168152602001600182018054620006079062000f01565b80601f0160208091040260200160405190810160405280929190818152602001828054620006359062000f01565b8015620006865780601f106200065a5761010080835404028352916020019162000686565b820191906000526020600020905b8154815290600101906020018083116200066857829003601f168201915b505050505081526020016002820160009054906101000a900473ffffffffffffffffffffffffffffffffffffffff1673ffffffffffffffffffffffffffffffffffffffff1673ffffffffffffffffffffffffffffffffffffffff1681525050815260200190600101906200057b565b50505050905090565b80600081905550807fda259f12d3deb61fd6754d5a7caec167893938c5e89eaf837d583541dbd5b4f760405160405180910390a250565b60008073ffffffffffffffffffffffffffffffffffffffff168273ffffffffffffffffffffffffffffffffffffffff161415620007a9576040517f08c379a0000000000000000000000000000000000000000000000000000000008152600401620007a09062000d41565b60405180910390fd5b600160008373ffffffffffffffffffffffffffffffffffffffff1673ffffffffffffffffffffffffffffffffffffffff16815260200190815260200160002060009054906101000a900460ff169050919050565b60008073ffffffffffffffffffffffffffffffffffffffff168273ffffffffffffffffffffffffffffffffffffffff16141562000871576040517f08c379a0000000000000000000000000000000000000000000000000000000008152600401620008689062000d41565b60405180910390fd5b600260008373ffffffffffffffffffffffffffffffffffffffff1673ffffffffffffffffffffffffffffffffffffffff16815260200190815260200160002060009054906101000a900473ffffffffffffffffffffffffffffffffffffffff169050919050565b6128ea806200108983390190565b828054620008f49062000f01565b90600052602060002090601f01602090048101928262000918576000855562000964565b82601f106200093357805160ff191683800117855562000964565b8280016001018555821562000964579182015b828111156200096357825182559160200191906001019062000946565b5b50905062000973919062000977565b5090565b5b808211156200099257600081600090555060010162000978565b5090565b6000620009ad620009a78462000dcb565b62000da2565b905082815260208101848484011115620009c657600080fd5b620009d384828562000ebc565b509392505050565b600081359050620009ec8162001054565b92915050565b600082601f83011262000a0457600080fd5b813562000a1684826020860162000996565b91505092915050565b60008135905062000a30816200106e565b92915050565b60006020828403121562000a4957600080fd5b600062000a5984828501620009db565b91505092915050565b60006020828403121562000a7557600080fd5b600082013567ffffffffffffffff81111562000a9057600080fd5b62000a9e84828501620009f2565b91505092915050565b60006020828403121562000aba57600080fd5b600062000aca8482850162000a1f565b91505092915050565b600062000ae1838362000c63565b905092915050565b62000af48162000e72565b82525050565b62000b058162000e72565b82525050565b600062000b188262000e11565b62000b24818562000e34565b93508360208202850162000b388562000e01565b8060005b8581101562000b7a578484038952815162000b58858262000ad3565b945062000b658362000e27565b925060208a0199505060018101905062000b3c565b50829750879550505050505092915050565b62000b978162000e86565b82525050565b600062000baa8262000e1c565b62000bb6818562000e45565b935062000bc881856020860162000ecb565b62000bd38162000fcb565b840191505092915050565b600062000beb8262000e1c565b62000bf7818562000e67565b935062000c0981856020860162000ecb565b80840191505092915050565b600062000c2460108362000e56565b915062000c318262000fdc565b602082019050919050565b600062000c4b602a8362000e56565b915062000c588262001005565b604082019050919050565b600060608301600083015162000c7d600086018262000ae9565b506020830151848203602086015262000c97828262000b9d565b915050604083015162000cae604086018262000ae9565b508091505092915050565b62000cc48162000eb2565b82525050565b600062000cd8828462000bde565b915081905092915050565b600060208201905062000cfa600083018462000afa565b92915050565b6000602082019050818103600083015262000d1c818462000b0b565b905092915050565b600060208201905062000d3b600083018462000b8c565b92915050565b6000602082019050818103600083015262000d5c8162000c15565b9050919050565b6000602082019050818103600083015262000d7e8162000c3c565b9050919050565b600060208201905062000d9c600083018462000cb9565b92915050565b600062000dae62000dc1565b905062000dbc828262000f37565b919050565b6000604051905090565b600067ffffffffffffffff82111562000de95762000de862000f9c565b5b62000df48262000fcb565b9050602081019050919050565b6000819050602082019050919050565b600081519050919050565b600081519050919050565b6000602082019050919050565b600082825260208201905092915050565b600082825260208201905092915050565b600082825260208201905092915050565b600081905092915050565b600062000e7f8262000e92565b9050919050565b60008115159050919050565b600073ffffffffffffffffffffffffffffffffffffffff82169050919050565b6000819050919050565b82818337600083830152505050565b60005b8381101562000eeb57808201518184015260208101905062000ece565b8381111562000efb576000848401525b50505050565b6000600282049050600182168062000f1a57607f821691505b6020821081141562000f315762000f3062000f6d565b5b50919050565b62000f428262000fcb565b810181811067ffffffffffffffff8211171562000f645762000f6362000f9c565b5b80604052505050565b7f4e487b7100000000000000000000000000000000000000000000000000000000600052602260045260246000fd5b7f4e487b7100000000000000000000000000000000000000000000000000000000600052604160045260246000fd5b6000601f19601f8301169050919050565b7f496e76616c696420616464726573732e00000000000000000000000000000000600082015250565b7f436f6e747261637420616c7265616479206465706c6f7965642062792074686960008201527f7320616464726573732e00000000000000000000000000000000000000000000602082015250565b6200105f8162000e72565b81146200106b57600080fd5b50565b620010798162000eb2565b81146200108557600080fd5b5056fe60806040523480156200001157600080fd5b506040518060400160405280600981526020017f506970656c654e465400000000000000000000000000000000000000000000008152506040518060400160405280600481526020017f5050465400000000000000000000000000000000000000000000000000000000815250816000908051906020019062000096929190620000f9565b508060019080519060200190620000af929190620000f9565b50505033600860006101000a81548173ffffffffffffffffffffffffffffffffffffffff021916908373ffffffffffffffffffffffffffffffffffffffff1602179055506200020e565b8280546200010790620001a9565b90600052602060002090601f0160209004810192826200012b576000855562000177565b82601f106200014657805160ff191683800117855562000177565b8280016001018555821562000177579182015b828111156200017657825182559160200191906001019062000159565b5b5090506200018691906200018a565b5090565b5b80821115620001a55760008160009055506001016200018b565b5090565b60006002820490506001821680620001c257607f821691505b60208210811415620001d957620001d8620001df565b5b50919050565b7f4e487b7100000000000000000000000000000000000000000000000000000000600052602260045260246000fd5b6126cc806200021e6000396000f3fe608060405234801561001057600080fd5b50600436106100ea5760003560e01c80636a6278421161008c578063a22cb46511610066578063a22cb4651461026f578063b88d4fde1461028b578063c87b56dd146102a7578063e985e9c5146102d7576100ea565b80636a627842146101f157806370a082311461022157806395d89b4114610251576100ea565b8063095ea7b3116100c8578063095ea7b31461016d57806323b872dd1461018957806342842e0e146101a55780636352211e146101c1576100ea565b806301ffc9a7146100ef57806306fdde031461011f578063081812fc1461013d575b600080fd5b61010960048036038101906101049190611a3e565b610307565b6040516101169190611db8565b60405180910390f35b6101276103e9565b6040516101349190611dd3565b60405180910390f35b61015760048036038101906101529190611a90565b61047b565b6040516101649190611d51565b60405180910390f35b61018760048036038101906101829190611a02565b6104c1565b005b6101a3600480360381019061019e91906118fc565b6105d9565b005b6101bf60048036038101906101ba91906118fc565b610639565b005b6101db60048036038101906101d69190611a90565b610659565b6040516101e89190611d51565b60405180910390f35b61020b60048036038101906102069190611897565b61070b565b6040516102189190611f75565b60405180910390f35b61023b60048036038101906102369190611897565b6107c8565b6040516102489190611f75565b60405180910390f35b610259610880565b6040516102669190611dd3565b60405180910390f35b610289600480360381019061028491906119c6565b610912565b005b6102a560048036038101906102a0919061194b565b610928565b005b6102c160048036038101906102bc9190611a90565b61098a565b6040516102ce9190611dd3565b60405180910390f35b6102f160048036038101906102ec91906118c0565b610a9d565b6040516102fe9190611db8565b60405180910390f35b60007f80ac58cd000000000000000000000000000000000000000000000000000000007bffffffffffffffffffffffffffffffffffffffffffffffffffffffff1916827bffffffffffffffffffffffffffffffffffffffffffffffffffffffff191614806103d257507f5b5e139f000000000000000000000000000000000000000000000000000000007bffffffffffffffffffffffffffffffffffffffffffffffffffffffff1916827bffffffffffffffffffffffffffffffffffffffffffffffffffffffff1916145b806103e257506103e182610b31565b5b9050919050565b6060600080546103f89061219a565b80601f01602080910402602001604051908101604052809291908181526020018280546104249061219a565b80156104715780601f1061044657610100808354040283529160200191610471565b820191906000526020600020905b81548152906001019060200180831161045457829003601f168201915b5050505050905090565b600061048682610b9b565b6004600083815260200190815260200160002060009054906101000a900473ffffffffffffffffffffffffffffffffffffffff169050919050565b60006104cc82610659565b90508073ffffffffffffffffffffffffffffffffffffffff168373ffffffffffffffffffffffffffffffffffffffff16141561053d576040517f08c379a000000000000000000000000000000000000000000000000000000000815260040161053490611f35565b60405180910390fd5b8073ffffffffffffffffffffffffffffffffffffffff1661055c610be6565b73ffffffffffffffffffffffffffffffffffffffff16148061058b575061058a81610585610be6565b610a9d565b5b6105ca576040517f08c379a00000000000000000000000000000000000000000000000000000000081526004016105c190611ed5565b60405180910390fd5b6105d48383610bee565b505050565b6105ea6105e4610be6565b82610ca7565b610629576040517f08c379a000000000000000000000000000000000000000000000000000000000815260040161062090611f55565b60405180910390fd5b610634838383610d3c565b505050565b61065483838360405180602001604052806000815250610928565b505050565b6000806002600084815260200190815260200160002060009054906101000a900473ffffffffffffffffffffffffffffffffffffffff169050600073ffffffffffffffffffffffffffffffffffffffff168173ffffffffffffffffffffffffffffffffffffffff161415610702576040517f08c379a00000000000000000000000000000000000000000000000000000000081526004016106f990611f15565b60405180910390fd5b80915050919050565b60003373ffffffffffffffffffffffffffffffffffffffff16600860009054906101000a900473ffffffffffffffffffffffffffffffffffffffff1673ffffffffffffffffffffffffffffffffffffffff161461079d576040517f08c379a000000000000000000000000000000000000000000000000000000000815260040161079490611e55565b60405180910390fd5b6107a76007610fa3565b60006107b36007610fb9565b90506107bf8382610fc7565b80915050919050565b60008073ffffffffffffffffffffffffffffffffffffffff168273ffffffffffffffffffffffffffffffffffffffff161415610839576040517f08c379a000000000000000000000000000000000000000000000000000000000815260040161083090611eb5565b60405180910390fd5b600360008373ffffffffffffffffffffffffffffffffffffffff1673ffffffffffffffffffffffffffffffffffffffff168152602001908152602001600020549050919050565b60606001805461088f9061219a565b80601f01602080910402602001604051908101604052809291908181526020018280546108bb9061219a565b80156109085780601f106108dd57610100808354040283529160200191610908565b820191906000526020600020905b8154815290600101906020018083116108eb57829003601f168201915b5050505050905090565b61092461091d610be6565b83836111a1565b5050565b610939610933610be6565b83610ca7565b610978576040517f08c379a000000000000000000000000000000000000000000000000000000000815260040161096f90611f55565b60405180910390fd5b6109848484848461130e565b50505050565b606061099582610b9b565b60006006600084815260200190815260200160002080546109b59061219a565b80601f01602080910402602001604051908101604052809291908181526020018280546109e19061219a565b8015610a2e5780601f10610a0357610100808354040283529160200191610a2e565b820191906000526020600020905b815481529060010190602001808311610a1157829003601f168201915b505050505090506000610a3f61136a565b9050600081511415610a55578192505050610a98565b600082511115610a8a578082604051602001610a72929190611d2d565b60405160208183030381529060405292505050610a98565b610a9384611381565b925050505b919050565b6000600560008473ffffffffffffffffffffffffffffffffffffffff1673ffffffffffffffffffffffffffffffffffffffff16815260200190815260200160002060008373ffffffffffffffffffffffffffffffffffffffff1673ffffffffffffffffffffffffffffffffffffffff16815260200190815260200160002060009054906101000a900460ff16905092915050565b60007f01ffc9a7000000000000000000000000000000000000000000000000000000007bffffffffffffffffffffffffffffffffffffffffffffffffffffffff1916827bffffffffffffffffffffffffffffffffffffffffffffffffffffffff1916149050919050565b610ba4816113e9565b610be3576040517f08c379a0000000000000000000000000000000000000000000000000000000008152600401610bda90611f15565b60405180910390fd5b50565b600033905090565b816004600083815260200190815260200160002060006101000a81548173ffffffffffffffffffffffffffffffffffffffff021916908373ffffffffffffffffffffffffffffffffffffffff160217905550808273ffffffffffffffffffffffffffffffffffffffff16610c6183610659565b73ffffffffffffffffffffffffffffffffffffffff167f8c5be1e5ebec7d5bd14f71427d1e84f3dd0314c0f7b2291e5b200ac8c7c3b92560405160405180910390a45050565b600080610cb383610659565b90508073ffffffffffffffffffffffffffffffffffffffff168473ffffffffffffffffffffffffffffffffffffffff161480610cf55750610cf48185610a9d565b5b80610d3357508373ffffffffffffffffffffffffffffffffffffffff16610d1b8461047b565b73ffffffffffffffffffffffffffffffffffffffff16145b91505092915050565b8273ffffffffffffffffffffffffffffffffffffffff16610d5c82610659565b73ffffffffffffffffffffffffffffffffffffffff1614610db2576040517f08c379a0000000000000000000000000000000000000000000000000000000008152600401610da990611e15565b60405180910390fd5b600073ffffffffffffffffffffffffffffffffffffffff168273ffffffffffffffffffffffffffffffffffffffff161415610e22576040517f08c379a0000000000000000000000000000000000000000000000000000000008152600401610e1990611e75565b60405180910390fd5b610e2d838383611455565b610e38600082610bee565b6001600360008573ffffffffffffffffffffffffffffffffffffffff1673ffffffffffffffffffffffffffffffffffffffff1681526020019081526020016000206000828254610e8891906120b0565b925050819055506001600360008473ffffffffffffffffffffffffffffffffffffffff1673ffffffffffffffffffffffffffffffffffffffff1681526020019081526020016000206000828254610edf9190612029565b92505081905550816002600083815260200190815260200160002060006101000a81548173ffffffffffffffffffffffffffffffffffffffff021916908373ffffffffffffffffffffffffffffffffffffffff160217905550808273ffffffffffffffffffffffffffffffffffffffff168473ffffffffffffffffffffffffffffffffffffffff167fddf252ad1be2c89b69c2b068fc378daa952ba7f163c4a11628f55a4df523b3ef60405160405180910390a4610f9e83838361145a565b505050565b6001816000016000828254019250508190555050565b600081600001549050919050565b600073ffffffffffffffffffffffffffffffffffffffff168273ffffffffffffffffffffffffffffffffffffffff161415611037576040517f08c379a000000000000000000000000000000000000000000000000000000000815260040161102e90611ef5565b60405180910390fd5b611040816113e9565b15611080576040517f08c379a000000000000000000000000000000000000000000000000000000000815260040161107790611e35565b60405180910390fd5b61108c60008383611455565b6001600360008473ffffffffffffffffffffffffffffffffffffffff1673ffffffffffffffffffffffffffffffffffffffff16815260200190815260200160002060008282546110dc9190612029565b92505081905550816002600083815260200190815260200160002060006101000a81548173ffffffffffffffffffffffffffffffffffffffff021916908373ffffffffffffffffffffffffffffffffffffffff160217905550808273ffffffffffffffffffffffffffffffffffffffff16600073ffffffffffffffffffffffffffffffffffffffff167fddf252ad1be2c89b69c2b068fc378daa952ba7f163c4a11628f55a4df523b3ef60405160405180910390a461119d6000838361145a565b5050565b8173ffffffffffffffffffffffffffffffffffffffff168373ffffffffffffffffffffffffffffffffffffffff161415611210576040517f08c379a000000000000000000000000000000000000000000000000000000000815260040161120790611e95565b60405180910390fd5b80600560008573ffffffffffffffffffffffffffffffffffffffff1673ffffffffffffffffffffffffffffffffffffffff16815260200190815260200160002060008473ffffffffffffffffffffffffffffffffffffffff1673ffffffffffffffffffffffffffffffffffffffff16815260200190815260200160002060006101000a81548160ff0219169083151502179055508173ffffffffffffffffffffffffffffffffffffffff168373ffffffffffffffffffffffffffffffffffffffff167f17307eab39ab6107e8899845ad3d59bd9653f200f220920489ca2b5937696c31836040516113019190611db8565b60405180910390a3505050565b611319848484610d3c565b6113258484848461145f565b611364576040517f08c379a000000000000000000000000000000000000000000000000000000000815260040161135b90611df5565b60405180910390fd5b50505050565b606060405180602001604052806000815250905090565b606061138c82610b9b565b600061139661136a565b905060008151116113b657604051806020016040528060008152506113e1565b806113c0846115f6565b6040516020016113d1929190611d2d565b6040516020818303038152906040525b915050919050565b60008073ffffffffffffffffffffffffffffffffffffffff166002600084815260200190815260200160002060009054906101000a900473ffffffffffffffffffffffffffffffffffffffff1673ffffffffffffffffffffffffffffffffffffffff1614159050919050565b505050565b505050565b60006114808473ffffffffffffffffffffffffffffffffffffffff166117a3565b156115e9578373ffffffffffffffffffffffffffffffffffffffff1663150b7a026114a9610be6565b8786866040518563ffffffff1660e01b81526004016114cb9493929190611d6c565b602060405180830381600087803b1580156114e557600080fd5b505af192505050801561151657506040513d601f19601f820116820180604052508101906115139190611a67565b60015b611599573d8060008114611546576040519150601f19603f3d011682016040523d82523d6000602084013e61154b565b606091505b50600081511415611591576040517f08c379a000000000000000000000000000000000000000000000000000000000815260040161158890611df5565b60405180910390fd5b805181602001fd5b63150b7a0260e01b7bffffffffffffffffffffffffffffffffffffffffffffffffffffffff1916817bffffffffffffffffffffffffffffffffffffffffffffffffffffffff1916149150506115ee565b600190505b949350505050565b6060600082141561163e576040518060400160405280600181526020017f3000000000000000000000000000000000000000000000000000000000000000815250905061179e565b600082905060005b60008214611670578080611659906121fd565b915050600a82611669919061207f565b9150611646565b60008167ffffffffffffffff8111156116b2577f4e487b7100000000000000000000000000000000000000000000000000000000600052604160045260246000fd5b6040519080825280601f01601f1916602001820160405280156116e45781602001600182028036833780820191505090505b5090505b60008514611797576001826116fd91906120b0565b9150600a8561170c9190612246565b60306117189190612029565b60f81b818381518110611754577f4e487b7100000000000000000000000000000000000000000000000000000000600052603260045260246000fd5b60200101907effffffffffffffffffffffffffffffffffffffffffffffffffffffffffffff1916908160001a905350600a85611790919061207f565b94506116e8565b8093505050505b919050565b6000808273ffffffffffffffffffffffffffffffffffffffff163b119050919050565b60006117d96117d484611fb5565b611f90565b9050828152602081018484840111156117f157600080fd5b6117fc848285612158565b509392505050565b6000813590506118138161263a565b92915050565b60008135905061182881612651565b92915050565b60008135905061183d81612668565b92915050565b60008151905061185281612668565b92915050565b600082601f83011261186957600080fd5b81356118798482602086016117c6565b91505092915050565b6000813590506118918161267f565b92915050565b6000602082840312156118a957600080fd5b60006118b784828501611804565b91505092915050565b600080604083850312156118d357600080fd5b60006118e185828601611804565b92505060206118f285828601611804565b9150509250929050565b60008060006060848603121561191157600080fd5b600061191f86828701611804565b935050602061193086828701611804565b925050604061194186828701611882565b9150509250925092565b6000806000806080858703121561196157600080fd5b600061196f87828801611804565b945050602061198087828801611804565b935050604061199187828801611882565b925050606085013567ffffffffffffffff8111156119ae57600080fd5b6119ba87828801611858565b91505092959194509250565b600080604083850312156119d957600080fd5b60006119e785828601611804565b92505060206119f885828601611819565b9150509250929050565b60008060408385031215611a1557600080fd5b6000611a2385828601611804565b9250506020611a3485828601611882565b9150509250929050565b600060208284031215611a5057600080fd5b6000611a5e8482850161182e565b91505092915050565b600060208284031215611a7957600080fd5b6000611a8784828501611843565b91505092915050565b600060208284031215611aa257600080fd5b6000611ab084828501611882565b91505092915050565b611ac2816120e4565b82525050565b611ad1816120f6565b82525050565b6000611ae282611fe6565b611aec8185611ffc565b9350611afc818560208601612167565b611b0581612333565b840191505092915050565b6000611b1b82611ff1565b611b25818561200d565b9350611b35818560208601612167565b611b3e81612333565b840191505092915050565b6000611b5482611ff1565b611b5e818561201e565b9350611b6e818560208601612167565b80840191505092915050565b6000611b8760328361200d565b9150611b9282612344565b604082019050919050565b6000611baa60258361200d565b9150611bb582612393565b604082019050919050565b6000611bcd601c8361200d565b9150611bd8826123e2565b602082019050919050565b6000611bf060178361200d565b9150611bfb8261240b565b602082019050919050565b6000611c1360248361200d565b9150611c1e82612434565b604082019050919050565b6000611c3660198361200d565b9150611c4182612483565b602082019050919050565b6000611c5960298361200d565b9150611c64826124ac565b604082019050919050565b6000611c7c603e8361200d565b9150611c87826124fb565b604082019050919050565b6000611c9f60208361200d565b9150611caa8261254a565b602082019050919050565b6000611cc260188361200d565b9150611ccd82612573565b602082019050919050565b6000611ce560218361200d565b9150611cf08261259c565b604082019050919050565b6000611d08602e8361200d565b9150611d13826125eb565b604082019050919050565b611d278161214e565b82525050565b6000611d398285611b49565b9150611d458284611b49565b91508190509392505050565b6000602082019050611d666000830184611ab9565b92915050565b6000608082019050611d816000830187611ab9565b611d8e6020830186611ab9565b611d9b6040830185611d1e565b8181036060830152611dad8184611ad7565b905095945050505050565b6000602082019050611dcd6000830184611ac8565b92915050565b60006020820190508181036000830152611ded8184611b10565b905092915050565b60006020820190508181036000830152611e0e81611b7a565b9050919050565b60006020820190508181036000830152611e2e81611b9d565b9050919050565b60006020820190508181036000830152611e4e81611bc0565b9050919050565b60006020820190508181036000830152611e6e81611be3565b9050919050565b60006020820190508181036000830152611e8e81611c06565b9050919050565b60006020820190508181036000830152611eae81611c29565b9050919050565b60006020820190508181036000830152611ece81611c4c565b9050919050565b60006020820190508181036000830152611eee81611c6f565b9050919050565b60006020820190508181036000830152611f0e81611c92565b9050919050565b60006020820190508181036000830152611f2e81611cb5565b9050919050565b60006020820190508181036000830152611f4e81611cd8565b9050919050565b60006020820190508181036000830152611f6e81611cfb565b9050919050565b6000602082019050611f8a6000830184611d1e565b92915050565b6000611f9a611fab565b9050611fa682826121cc565b919050565b6000604051905090565b600067ffffffffffffffff821115611fd057611fcf612304565b5b611fd982612333565b9050602081019050919050565b600081519050919050565b600081519050919050565b600082825260208201905092915050565b600082825260208201905092915050565b600081905092915050565b60006120348261214e565b915061203f8361214e565b9250827fffffffffffffffffffffffffffffffffffffffffffffffffffffffffffffffff0382111561207457612073612277565b5b828201905092915050565b600061208a8261214e565b91506120958361214e565b9250826120a5576120a46122a6565b5b828204905092915050565b60006120bb8261214e565b91506120c68361214e565b9250828210156120d9576120d8612277565b5b828203905092915050565b60006120ef8261212e565b9050919050565b60008115159050919050565b60007fffffffff0000000000000000000000000000000000000000000000000000000082169050919050565b600073ffffffffffffffffffffffffffffffffffffffff82169050919050565b6000819050919050565b82818337600083830152505050565b60005b8381101561218557808201518184015260208101905061216a565b83811115612194576000848401525b50505050565b600060028204905060018216806121b257607f821691505b602082108114156121c6576121c56122d5565b5b50919050565b6121d582612333565b810181811067ffffffffffffffff821117156121f4576121f3612304565b5b80604052505050565b60006122088261214e565b91507fffffffffffffffffffffffffffffffffffffffffffffffffffffffffffffffff82141561223b5761223a612277565b5b600182019050919050565b60006122518261214e565b915061225c8361214e565b92508261226c5761226b6122a6565b5b828206905092915050565b7f4e487b7100000000000000000000000000000000000000000000000000000000600052601160045260246000fd5b7f4e487b7100000000000000000000000000000000000000000000000000000000600052601260045260246000fd5b7f4e487b7100000000000000000000000000000000000000000000000000000000600052602260045260246000fd5b7f4e487b7100000000000000000000000000000000000000000000000000000000600052604160045260246000fd5b6000601f19601f8301169050919050565b7f4552433732313a207472616e7366657220746f206e6f6e20455243373231526560008201527f63656976657220696d706c656d656e7465720000000000000000000000000000602082015250565b7f4552433732313a207472616e736665722066726f6d20696e636f72726563742060008201527f6f776e6572000000000000000000000000000000000000000000000000000000602082015250565b7f4552433732313a20746f6b656e20616c7265616479206d696e74656400000000600082015250565b7f4f6e6c79206f776e65722063616e206d696e74204e4654000000000000000000600082015250565b7f4552433732313a207472616e7366657220746f20746865207a65726f2061646460008201527f7265737300000000000000000000000000000000000000000000000000000000602082015250565b7f4552433732313a20617070726f766520746f2063616c6c657200000000000000600082015250565b7f4552433732313a2061646472657373207a65726f206973206e6f74206120766160008201527f6c6964206f776e65720000000000000000000000000000000000000000000000602082015250565b7f4552433732313a20617070726f76652063616c6c6572206973206e6f7420746f60008201527f6b656e206f776e6572206e6f7220617070726f76656420666f7220616c6c0000602082015250565b7f4552433732313a206d696e7420746f20746865207a65726f2061646472657373600082015250565b7f4552433732313a20696e76616c696420746f6b656e2049440000000000000000600082015250565b7f4552433732313a20617070726f76616c20746f2063757272656e74206f776e6560008201527f7200000000000000000000000000000000000000000000000000000000000000602082015250565b7f4552433732313a2063616c6c6572206973206e6f7420746f6b656e206f776e6560008201527f72206e6f7220617070726f766564000000000000000000000000000000000000602082015250565b612643816120e4565b811461264e57600080fd5b50565b61265a816120f6565b811461266557600080fd5b50565b61267181612102565b811461267c57600080fd5b50565b6126888161214e565b811461269357600080fd5b5056fea2646970667358221220fafc863e293b183ac0734940477448cf28a92f477ad2436cec243b5a53a52d0c64736f6c63430008040033a2646970667358221220b3b85a90a01b37616289773e3273c47a43f3453f2ad0e55ddd0c75b7ac2915ad64736f6c63430008040033",
  "linkReferences": {},
  "deployedLinkReferences": {}
}